:020000040800F2
:10000000004000208D120008E5110008E7110008EB
:10001000E9110008EB110008ED11000800000000D4
:10002000000000000000000000000000EF110008C8
:10003000F111000800000000F3110008F51100089C
:10004000DD120008DD120008DD120008DD120008D4
:10005000DD120008DD120008DD120008DD120008C4
:10006000DD120008DD120008DD120008F71100089B
:10007000DD120008DD120008F9110008FB1100086C
:10008000FD110008DD120008DD120008DD12000875
:10009000DD120008DD120008DD120008DD12000884
:1000A000DD120008DD12000801120008DD12000850
:1000B000DD1200080000000000000000DD12000852
:1000C000DD120008DD120008DD120008000000004B
:1000D000DD1200082112000823120008DD120008BA
:1000E000DD120008DD120008DD120008000000002B
:1000F0000000000000000000000000000000000000
:10010000000000000000000000000000DD120008F8
:100110000000000000000000DD12000800000000E8
:1001200000000000000000000000000000000000CF
:1001300000000000000000000000000000000000BF
:10014000DD120008DD1200080000000000000000C1
:10015000000000000000000000000000000000009F
:10016000DD120008DD120008DD120008DD120008B3
:10017000DD12000800000000000000000000000088
:0801800000000000DD12000880
:1001880010B5054C237833B9044B13B10448AFF3C9
:1001980000800123237010BD04000020000000002F
:1001A8002813000808B5034B1BB103490348AFF3F4
:1001B800008008BD00000000080000202813000887
:1001C8004FF0A0439B68DB075FBF83680A6823F48E
:1001D800403313435ABF836001200020704783686F
:1001E800DB0710B50DD491E81800C268896823436D
:1001F80022F480420B4322F038021343C3600120EB
:1002080010BD002010BD00008368DB07F0B520D4C6
:100218004C68DFF844C0D1F800E0CF680E694D693A
:100228008CB1C3688A6803EA0C0343EA0E031343DC
:100238003B4333432B43C360036B23F00F031C433F
:1002480004630120F0BDC26802EA0C0242EA0E0310
:10025800EEE70020F0BD00BF3CC0F0FF2DE9F04301
:100268000A6892FAA2F44FF0010EB4FA84F4032556
:100278000F2732FA04F30DD14B68013B012B06D846
:100288004368C96823EA02034A431A4342600120CB
:10029800BDE8F0830EFA04F3134069D0D1F8048066
:1002A800D0F8009093FAA3FCBCFA8CFC93FAA3F65E
:1002B800B6FA86F64FEA4C0C05FA0CFC760029EAE9
:1002C8000C0C08FA06F64CEA0606066008F1FF363A
:1002D800012E16D8866893FAA3FCBCFA8CFC93FA14
:1002E800A3F94FEA4C0C05FA0CFC26EA0C0CB9FAF7
:1002F80089F98E684FEA490906FA09F64CEA0606B2
:100308008660C66893FAA3FCBCFA8CFC93FAA3F93E
:100318004FEA4C0C05FA0CFC26EA0C0CB9FA89F9E0
:100328000E694FEA490906FA09F64CEA0606B8F1D9
:10033800020FC6601CD193FAA3F6B6FA86F6072E0A
:10034800D1F814C016DCD0F8208093FAA3F6B6FAD8
:1003580086F693FAA3F3B3FA83F3B60007FA06F620
:100368009B0028EA06060CFA03FC46EA0C0606621D
:1003780001347EE7D0F824801B0A93FAA3F6B6FA74
:1003880086F693FAA3F3B3FA83F3B60007FA06F6F0
:100398009B0028EA06060CFA03F333434362E7E7B7
:1003A800034B044A5B68C3F30313D35CD84070471C
:1003B8000010024040130008034B044A5B68C3F373
:1003C8000223D35CD8407047001002405013000845
:1003D800034B044A5B68C3F3C223D35CD84070471D
:1003E80000100240501300080D4B0E495A680E4881
:1003F80002F48032002A08BF0846D96A5B684FF4C5
:10040800701292FAA2F2B2FA82F203F47013D34095
:10041800023301F00F010131B0FBF1F0584370478E
:100428000010024000093D0000127A00044B5B688E
:1004380003F00C03082B01D1FFF7D6BF0148704722
:100448000010024000127A0010B50446FFF7EEFFD4
:100458002060FFF7A5FF6060FFF7AEFFA06060684F
:10046800FFF7B6FFE06010BD08B518BB124A136B62
:1004780003F00303022B0ED0032B05D0012B11D15F
:10048800BDE80840FFF7D2BF136813F0020F0B4B0B
:1004980018BF184608BD136A13F0020F18BF4FF4AF
:1004A800004008BDFFF7C2FFFFF77AFFBDE808402C
:1004B800FFF782BF002008BD0010024000127A003A
:1004C8001E4A0368904210B502D0B0F1804F09D19E
:1004D8004C6823F07003904243EA04030DD0B0F156
:1004E800804F0AD0164A904207D002F580629042A7
:1004F80003D002F58062904203D1CA6823F44073A6
:10050800134303608B68C3620B8883620B4B98426A
:100518000BD003F5A053984207D003F580639842A7
:1005280003D003F58063984201D10B7C03634369D0
:1005380043F001034361012010BD00BF002C0140BE
:1005480000400140B1F5807F30B500F0C18005D88A
:1005580001293FD010297BD0002030BDB1F5803F64
:1005680000F0F580B1F5801F00F02181B1F5805FC2
:10057800F2D1036A156823F480530362036A44685E
:10058800C16921F0807121F4E64141EA052115692C
:1005980023F4005343EA0533556823F4805343EAB0
:1005A80005339B4DA8420BD005F5A055A84207D0AE
:1005B80005F58065A84203D005F58065A84204D1F9
:1005C800956924F4804444EA8514D2684460C16182
:1005D80002643AE0036A156823F001030362036AC0
:1005E8004168846924F4803424F073042C43156929
:1005F80023F002032B43556823F001032B43844D5A
:10060800A8420BD005F5A055A84207D005F580658E
:10061800A84203D005F58065A84212D1556923F098
:10062800080343EA8503956823F0040343EA850336
:10063800956921F480712943D56921F4007141EA53
:100648004501D2684160846142630362012030BD84
:10065800036A156823F010030362036A416884691A
:1006680024F0807424F4E64444EA0524156923F050
:10067800200343EA0513556823F0100343EA0513E2
:10068800634DA8420BD005F5A055A84207D005F543
:100698008065A84203D005F58065A84213D1556945
:1006A80023F0800343EA8513956823F0400343EA67
:1006B8008513956921F4806141EA8501D56921F4A2
:1006C800006141EAC501D268416084618263BCE788
:1006D800036A156823F480730362036A4168C46976
:1006E80024F4803424F073042C43156923F4007334
:1006F80043EA0523556823F4807343EA0523444DF0
:10070800A8420BD005F5A055A84207D005F580658D
:10071800A84203D005F58065A84213D1556923F492
:10072800006343EA8523956823F4806343EA8523BD
:10073800956921F4805141EA0511D56921F40051E8
:1007480041EA4511D2684160C461C2637DE7036A2A
:10075800146823F480330362036A416D21F4803105
:1007680021F070010C43116923F4003343EA01437B
:10077800516823F4803343EA0143254988420BD06A
:1007880001F5A051884207D001F58061884203D065
:1007980001F58061884206D14168956921F480316C
:1007A80041EA05214160D268446582654DE7036AE4
:1007B800146823F480130362036A416D21F0807189
:1007C80021F4E04141EA0424116923F4001343EAC7
:1007D8000153516823F4801343EA01530C498842BA
:1007E8000BD001F5A051884207D001F580618842FD
:1007F80003D001F58061884206D14168956921F4EA
:10080800802141EA85214160D2684465C2651CE7C0
:10081800002C01408A680B7B13434A6823F48063E9
:1008280013430A6823F40063134323F48052CB89EB
:1008380013430A6923F4005313434A6A23F44043D9
:1008480013430B4A90420FD14A6923F47023134390
:100858000A6A23F4700313438A6923F080731343ED
:10086800CA6923F00073134343640120704700BF33
:10087800002C014030B50446006810F0010085B036
:100888000D4602D0002005B030BDEA686B682168CB
:1008980013432A691343AA6913431F4A0A4013439F
:1008A80023606368AA6823F4405313436360A36812
:1008B8006A6923F440731343A360184B9C4219D10F
:1008C800FFF7D2FD0028DDD02A68002ADAD0AB690C
:1008D800B3F5004F4FEA520318D103EB4003B3FBC3
:1008E800F2F34FF6F0721A40C3F342031343E36086
:1008F8000120C8E70A4B9C4204D16846FFF7A4FDD3
:100908000298DFE7074B9C42BCD1F6E70344B3FBF0
:10091800F2F39BB2EBE700BFF369FFEF0038014049
:1009280000440040004800404FF47A73B0FBF3F0F5
:10093800034B0022013858609A6007221A607047FA
:1009480010E000E0014B1860704700BF0000002075
:10095800024BD868C0F30220704700BF00ED00E0EA
:10096800054B5A6902435A615B6982B0184001908D
:10097800019B02B0704700BF00100240054BDA69C6
:100988000243DA61DB6982B018400190019B02B032
:10099800704700BF00100240054B9A6902439A61F4
:1009A8009B6982B018400190019B02B0704700BF5C
:1009B8000010024000207047384A136823F00703EC
:1009C80043F0020310B51360136803F00703022B0A
:1009D80000D0FEE7324C236843F480232360236869
:1009E80043F48033236023689A03FCD5636823F4B7
:1009F800741343F4E8136360E36A23F00F03E362BC
:100A0800236843F08073236023689B01FCD56368E7
:100A180023F0F0036360636823F4E06343F48063C6
:100A28006360636823F460536360636823F00303BF
:100A380043F002036360636803F00C03082BFAD1E8
:100A48001848FFF771FF184A1648136843F0040363
:100A58001360FFF777FF236B23F0030343F00103D1
:100A68002363236B23F480732363236B23F40053E2
:100A78002363236B23F480632363E36A23F4F8730B
:100A880043F48073E362FFF763FFFFF793FF074BBD
:100A98000001C0B283F8230010BD00BF002002404F
:100AA8000010024000A24A0410E000E000ED00E05F
:100AB8002DE980480120A1B0FFF76EFF4FF080506C
:100AC800FFF75CFFBE4ABF4BD168DFF81493DFF82D
:100AD80014B321F4E0610904090C0B43D360FFF758
:100AE80037FFFFF767FF0001C0B21076FFF730FF4E
:100AF800FFF760FF0001C0B25076FFF729FFFFF74C
:100B080059FF0001C0B29076FFF722FFFFF752FFAE
:100B18000001C0B2D077FFF71BFFFFF74BFF0001C2
:100B2800C0B282F82000FFF713FFFFF743FF000170
:100B3800C0B282F82200FFF70BFFFFF73BFF00016E
:100B4800C0B282F82300FFF737FF9F4B05221A60D7
:100B58004FF48000FFF704FF4FF40030FFF700FF69
:100B68004FF090464FF48020FFF7FAFE49F21C033D
:100B7800B362E02300240127C9F8283016A91C23F2
:100B8800304616934FF00308C02517971894199408
:100B98001A94FFF763FB16A930461695CDF85C80CA
:100BA8001A94FFF75BFB16A948461697CDF85C80A8
:100BB8001A944FF0020AFFF751FB4FF4104316A99D
:100BC80030461693179718941994CDF868A0FFF734
:100BD80045FB202316A9484616931797189419948D
:100BE8001A97FFF73BFB16A94846169517971894CE
:100BF80019941A94FFF732FB744B1A6842F4803246
:100C08001A601A6842F400321A603846FFF7A8FEE4
:100C18004FF08050FFF7A4FE16A930461695CDF880
:100C28005C801A94FFF71AFB16A948461697CDF868
:100C38005C801A94FFF712FB654B664D1A6802EA4E
:100C48000B021A601A6822F440521A601A6822F0DD
:100C580020021A601A6822F040021A601A6842F0EC
:100C680080021A601A6822F4407242F480721A6094
:100C78001A6822F4406242F480621A6008A94FF0B0
:100C8800A040089409940A94FFF7A9FA4FF48053F6
:100C98000EA94FF0A04013930E940F941094119442
:100CA8001297FFF7B1FA20AB284643F8744D19465E
:100CB8000193FFF785FA4FF0A040426842F0040222
:100CC8004260426822F0080242604FF4407292FA91
:100CD800A2F2026B22F4F86242F4806202634FF0DF
:100CE800007393FAA3F2B2FA82F223FA02F202FA3A
:100CF8000AF202444FF0F87E536900939EFAAEF16F
:100D08004FF0907CB1FA81F12CFA01F1072303FA34
:100D180001F1009B23EA01019EFAAEFE5161D0F871
:100D2800B02022F48032C0F8B020AA6822F0E07225
:100D380042F40002AA604FF40060274DFFF72CFE32
:100D4800019BADF80C402846194604940594069476
:100D58008DF81C40FFF7B4FB2B6823F080032B6051
:100D6800AA691E4B009342F00802AA616022284635
:100D780039460E920EAA0F9410941194129413945B
:100D880014941594FFF7DEFBAA69009B22F0040275
:100D9800AA615A680F9442F4006228465A604FF4D8
:100DA80080510EAA1094FFF7CDFB009B5A6822F4DD
:100DB80080625A606B6823F070036B6014E000BFB8
:100DC80000ED00E00003FA0510E000E0000001403B
:100DD8000800024000030050002C0140182C01407C
:100DE80000040048EFBFFFFF6B6823F470036B60DB
:100DF800AB6823F08003AB604FF4005328461A9386
:100E080016A94FF000731694179418948DF864403F
:100E1800ADF866401B941C941D931E941F94FFF715
:100E2800F9FC4FF48073089308A9062330460A9406
:100E38000B940C940D93CDF824A0FFF70FFA4FF400
:100E480000630B2208A93046089301930D920A9477
:100E58000B940C94CDF824A0FFF700FA3846FFF75E
:100E68008DFD16A93046CDF85880189419941A9417
:100E78001B97CDF85CA0FFF7F1F90EA94FF0804061
:100E8800ADF838400F9410941194FFF719FB4FF008
:100E980080424FF48040116821F080011160516850
:100EA80021F070015160916821F080019160916991
:100EB80021F0030139439161916921F00C0191619D
:100EC800916921F0F0019161116A41F00A01116202
:100ED800916921F4407141F480719161916921F423
:100EE80040619161916921F470419161116A41F009
:100EF800A0011162FFF750FD07234FF4C0620EA94D
:100F0800304613930E92CDF8408011941294CDF888
:100F18003CA0FFF7A3F9AD4A116801EA0B01116083
:100F2800116821F440511160116821F0200111600D
:100F3800116821F040011160116841F080011160D1
:100F4800116821F440711160116821F44061116049
:100F580052F8141C01EA0B0141F0100142F8141C6C
:100F680052F8141C21F4405142F8141C52F8141C75
:100F780021F0200142F8141C52F8141C21F0400101
:100F880042F8141C52F8141C41F0800142F8141C59
:100F980052F8141C21F4407142F8141C52F8141C25
:100FA80021F4406105F5406542F8141C4FF4E13224
:100FB8000C21169200924FF4004717941894284673
:100FC80019941A9116A91B941C97FFF753FCA9684A
:100FD80021F48061A960A96841F48051A960696819
:100FE80021F490416960A96821F02A01A960296863
:100FF80041F0010129604FF40030FFF7BFFC1821D0
:1010080007230E9148460EA91393CDF840801194FA
:101018001294CDF83CA0FFF721F96D49009A0868B1
:1010280000EA0B000860086820F44050086008686F
:1010380020F020000860086820F040000860086878
:1010480040F080000860086820F440700860086874
:10105800A5F5744520F4406008604FF0040816A90F
:10106800284616921794189419941B94CDF8688002
:101078001C97FFF7FFFBAA6822F48062AA60AA689F
:1010880042F48052AA606A6822F490426A60AA68B0
:1010980022F02A02AA602A6842F001022A604FF46C
:1010A8008020FFF779FC05F5823540F24A2216A91F
:1010B800ADF8582028464FF40072179418941992E6
:1010C8008DF86840FFF7FCF92A6822F080022A6050
:1010D8004FF48030FFF760FCADF85840179418942F
:1010E80019948DF868403B4C16A92046FFF7E8F99B
:1010F800226822F080022260A26822F4A03222F044
:101108000702A260626822F070026260A26822F0A0
:101118008002A260FFF71CFCFFF74CFC2E4A00FA85
:1011280008F04FF48041C0B282F80E031160FFF757
:101138000FFCFFF73FFC00FA08F0C0B282F80B037F
:10114800019B1360FFF704FCFFF734FC00FA08F07A
:10115800C0B282F80F031760FFF7FAFBFFF72AFC0B
:1011680000FA08F04FF48033C0B282F8100313601D
:10117800FFF7EEFBFFF71EFC00FA08F02023C0B2D1
:1011880082F825035360FFF7E3FBFFF713FC00FA2F
:1011980008F04023C0B282F826035360FFF7D8FB5B
:1011A800FFF708FC00FA08F04FF08063C0B282F83D
:1011B8001A031360EB6843F00103EB600823C6F8D9
:1011C8001880B3611023B361FEE700BF58000240E6
:1011D8006C0002400040014000E100E07047FEE77B
:1011E800FEE7FEE7FEE770477047704770477047B5
:1011F8007047704770470000064B1A69D20708D538
:101208006FF001021A614FF09042536983F00403B2
:101218005361704700480140704770471549D1F83D
:10122800883043F47003C1F88830134B1A6842F0D1
:1012380001021A605868114A02405A601A6822F07E
:10124800847222F480321A601A6822F480221A60AA
:101258005A6822F4FE025A60DA6A22F00F02DA6251
:10126800186B074A02401A6300229A604FF0006325
:101278008B60704700ED00E0001002400CC07FF862
:10128800CCFC00FFDFF834D0002103E00C4B5B58A6
:10129800435004310B480C4B42189A42F6D30B4A80
:1012A80002E0002342F8043B094B9A42F9D3FFF7C6
:1012B800B5FF00F011F8FFF7FBFBFEE70040002048
:1012C8006013000800000020040000200400002033
:1012D80020000020FEE7000070B50D4E0D4CA41B49
:1012E800A4100025A54209D10B4E0C4C00F018F8AB
:1012F800A41BA4100025A54205D170BD56F82530C1
:1013080098470135EEE756F8253098470135F2E75A
:101318005813000858130008581300085C130008F5
:10132800F8B500BFF8BC08BC9E467047F8B500BFCA
:08133800F8BC08BC9E4670479A
:101340000000000000000000010203040607080975
:0813500000000000010203048B
:04135800AD010008DB
:04135C0089010008FB
:0413600000127A00FD
:040000050800128D50
:00000001FF
