:020000040800F2
:1000000000400020891400080113000803130008B1
:10001000051300080713000809130008000000007A
:100020000000000000000000000000000B130008AA
:100030000D130008000000000F1300081113000842
:10004000D9140008D9140008D9140008D9140008DC
:10005000D9140008D9140008D9140008D9140008CC
:10006000D9140008D9140008D91400081313000883
:10007000D9140008D9140008151300081713000834
:1000800019130008D9140008D9140008D91400085D
:10009000D9140008D9140008D9140008D91400088C
:1000A000D9140008D91400081D130008D914000839
:1000B000D91400080000000000000000D914000856
:1000C000D9140008D9140008D91400080000000051
:1000D000D91400081D1400081F140008D9140008C2
:1000E000D9140008D9140008D91400080000000031
:1000F0000000000000000000000000000000000000
:10010000000000000000000000000000D9140008FA
:100110000000000000000000D914000800000000EA
:1001200000000000000000000000000000000000CF
:1001300000000000000000000000000000000000BF
:10014000D9140008D91400080000000000000000C5
:10015000000000000000000000000000000000009F
:10016000D9140008D9140008D9140008D9140008BB
:10017000D91400080000000000000000000000008A
:0801800000000000D914000882
:1001880010B5054C237833B9044B13B10448AFF3C9
:1001980000800123237010BD2C0000200000000007
:1001A8002415000808B5034B1BB103490348AFF3F6
:1001B800008008BD00000000300000202415000861
:1001C8004FF0A0439B68DB075FBF83680A6823F48E
:1001D800403313435ABF836001200020704783686F
:1001E800DB0710B50DD491E81800C268896823436D
:1001F80022F480420B4322F038021343C3600120EB
:1002080010BD002010BD00008368DB07F0B520D4C6
:100218004C68DFF844C0D1F800E0CF680E694D693A
:100228008CB1C3688A6803EA0C0343EA0E031343DC
:100238003B4333432B43C360036B23F00F031C433F
:1002480004630120F0BDC26802EA0C0242EA0E0310
:10025800EEE70020F0BD00BF3CC0F0FF2DE9F04301
:100268000A6892FAA2F44FF0010EB4FA84F4032556
:100278000F2732FA04F30DD14B68013B012B06D846
:100288004368C96823EA02034A431A4342600120CB
:10029800BDE8F0830EFA04F3134069D0D1F8048066
:1002A800D0F8009093FAA3FCBCFA8CFC93FAA3F65E
:1002B800B6FA86F64FEA4C0C05FA0CFC760029EAE9
:1002C8000C0C08FA06F64CEA0606066008F1FF363A
:1002D800012E16D8866893FAA3FCBCFA8CFC93FA14
:1002E800A3F94FEA4C0C05FA0CFC26EA0C0CB9FAF7
:1002F80089F98E684FEA490906FA09F64CEA0606B2
:100308008660C66893FAA3FCBCFA8CFC93FAA3F93E
:100318004FEA4C0C05FA0CFC26EA0C0CB9FA89F9E0
:100328000E694FEA490906FA09F64CEA0606B8F1D9
:10033800020FC6601CD193FAA3F6B6FA86F6072E0A
:10034800D1F814C016DCD0F8208093FAA3F6B6FAD8
:1003580086F693FAA3F3B3FA83F3B60007FA06F620
:100368009B0028EA06060CFA03FC46EA0C0606621D
:1003780001347EE7D0F824801B0A93FAA3F6B6FA74
:1003880086F693FAA3F3B3FA83F3B60007FA06F6F0
:100398009B0028EA06060CFA03F333434362E7E7B7
:1003A800034B044A5B68C3F30313D35CD84070471C
:1003B800001002403C150008034B044A5B68C3F375
:1003C8000223D35CD8407047001002404C15000847
:1003D800034B044A5B68C3F3C223D35CD84070471D
:1003E800001002404C1500080D4B0E495A680E4883
:1003F80002F48032002A08BF0846D96A5B684FF4C5
:10040800701292FAA2F2B2FA82F203F47013D34095
:10041800023301F00F010131B0FBF1F0584370478E
:100428000010024000093D0000127A00044B5B688E
:1004380003F00C03082B01D1FFF7D6BF0148704722
:100448000010024000127A0010B50446FFF7EEFFD4
:100458002060FFF7A5FF6060FFF7AEFFA06060684F
:10046800FFF7B6FFE06010BD08B518BB124A136B62
:1004780003F00303022B0ED0032B05D0012B11D15F
:10048800BDE80840FFF7D2BF136813F0020F0B4B0B
:1004980018BF184608BD136A13F0020F18BF4FF4AF
:1004A800004008BDFFF7C2FFFFF77AFFBDE808402C
:1004B800FFF782BF002008BD0010024000127A003A
:1004C8001E4A0368904210B502D0B0F1804F09D19E
:1004D8004C6823F07003904243EA04030DD0B0F156
:1004E800804F0AD0164A904207D002F580629042A7
:1004F80003D002F58062904203D1CA6823F44073A6
:10050800134303608B68C3620B8883620B4B98426A
:100518000BD003F5A053984207D003F580639842A7
:1005280003D003F58063984201D10B7C03634369D0
:1005380043F001034361012010BD00BF002C0140BE
:1005480000400140B1F5807F30B500F0C18005D88A
:1005580001293FD010297BD0002030BDB1F5803F64
:1005680000F0F580B1F5801F00F02181B1F5805FC2
:10057800F2D1036A156823F480530362036A44685E
:10058800C16921F0807121F4E64141EA052115692C
:1005980023F4005343EA0533556823F4805343EAB0
:1005A80005339B4DA8420BD005F5A055A84207D0AE
:1005B80005F58065A84203D005F58065A84204D1F9
:1005C800956924F4804444EA8514D2684460C16182
:1005D80002643AE0036A156823F001030362036AC0
:1005E8004168846924F4803424F073042C43156929
:1005F80023F002032B43556823F001032B43844D5A
:10060800A8420BD005F5A055A84207D005F580658E
:10061800A84203D005F58065A84212D1556923F098
:10062800080343EA8503956823F0040343EA850336
:10063800956921F480712943D56921F4007141EA53
:100648004501D2684160846142630362012030BD84
:10065800036A156823F010030362036A416884691A
:1006680024F0807424F4E64444EA0524156923F050
:10067800200343EA0513556823F0100343EA0513E2
:10068800634DA8420BD005F5A055A84207D005F543
:100698008065A84203D005F58065A84213D1556945
:1006A80023F0800343EA8513956823F0400343EA67
:1006B8008513956921F4806141EA8501D56921F4A2
:1006C800006141EAC501D268416084618263BCE788
:1006D800036A156823F480730362036A4168C46976
:1006E80024F4803424F073042C43156923F4007334
:1006F80043EA0523556823F4807343EA0523444DF0
:10070800A8420BD005F5A055A84207D005F580658D
:10071800A84203D005F58065A84213D1556923F492
:10072800006343EA8523956823F4806343EA8523BD
:10073800956921F4805141EA0511D56921F40051E8
:1007480041EA4511D2684160C461C2637DE7036A2A
:10075800146823F480330362036A416D21F4803105
:1007680021F070010C43116923F4003343EA01437B
:10077800516823F4803343EA0143254988420BD06A
:1007880001F5A051884207D001F58061884203D065
:1007980001F58061884206D14168956921F480316C
:1007A80041EA05214160D268446582654DE7036AE4
:1007B800146823F480130362036A416D21F0807189
:1007C80021F4E04141EA0424116923F4001343EAC7
:1007D8000153516823F4801343EA01530C498842BA
:1007E8000BD001F5A051884207D001F580618842FD
:1007F80003D001F58061884206D14168956921F4EA
:10080800802141EA85214160D2684465C2651CE7C0
:10081800002C01408A680B7B13434A6823F48063E9
:1008280013430A6823F40063134323F48052CB89EB
:1008380013430A6923F4005313434A6A23F44043D9
:1008480013430B4A90420FD14A6923F47023134390
:100858000A6A23F4700313438A6923F080731343ED
:10086800CA6923F00073134343640120704700BF33
:10087800002C014030B50446006810F0010085B036
:100888000D4602D0002005B030BDEA686B682168CB
:1008980013432A691343AA6913431F4A0A4013439F
:1008A80023606368AA6823F4405313436360A36812
:1008B8006A6923F440731343A360184B9C4219D10F
:1008C800FFF7D2FD0028DDD02A68002ADAD0AB690C
:1008D800B3F5004F4FEA520318D103EB4003B3FBC3
:1008E800F2F34FF6F0721A40C3F342031343E36086
:1008F8000120C8E70A4B9C4204D16846FFF7A4FDD3
:100908000298DFE7074B9C42BCD1F6E70344B3FBF0
:10091800F2F39BB2EBE700BFF369FFEF0038014049
:1009280000440040004800404FF47A73B0FBF3F0F5
:10093800034B0022013858609A6007221A607047FA
:1009480010E000E0014B1860704700BF280000204D
:10095800024BD868C0F30220704700BF00ED00E0EA
:10096800054B5A6902435A615B6982B0184001908D
:10097800019B02B0704700BF00100240054BDA69C6
:100988000243DA61DB6982B018400190019B02B032
:10099800704700BF00100240054B9A6902439A61F4
:1009A8009B6982B018400190019B02B0704700BF5C
:1009B8000010024000207047384A136823F00703EC
:1009C80043F0020310B51360136803F00703022B0A
:1009D80000D0FEE7324C236843F480232360236869
:1009E80043F48033236023689A03FCD5636823F4B7
:1009F800741343F4E8136360E36A23F00F03E362BC
:100A0800236843F08073236023689B01FCD56368E7
:100A180023F0F0036360636823F4E06343F48063C6
:100A28006360636823F460536360636823F00303BF
:100A380043F002036360636803F00C03082BFAD1E8
:100A48001848FFF771FF184A1648136843F0040363
:100A58001360FFF777FF236B23F0030343F00103D1
:100A68002363236B23F480732363236B23F40053E2
:100A78002363236B23F480632363E36A23F4F8730B
:100A880043F48073E362FFF763FFFFF793FF074BBD
:100A98000001C0B283F8230010BD00BF002002404F
:100AA8000010024000A24A0410E000E000ED00E05F
:100AB8002DE9F04F01209FB0FFF76EFF4FF08050F7
:100AC800FFF75CFFCE4ACF4BD168DFF84893DFF8D9
:100AD80048B321F4E0610904090C0B43D360FFF724
:100AE80037FFFFF767FF0001C0B21076FFF730FF4E
:100AF800FFF760FF0001C0B25076FFF729FFFFF74C
:100B080059FF0001C0B29076FFF722FFFFF752FFAE
:100B18000001C0B2D077FFF71BFFFFF74BFF0001C2
:100B2800C0B282F82000FFF713FFFFF743FF000170
:100B3800C0B282F82200FFF70BFFFFF73BFF00016E
:100B4800C0B282F82300FFF737FFAF4A05231360CE
:100B58004FF48000FFF704FF4FF40030FFF700FF69
:100B68004FF090474FF48020FFF7FAFE49F21C033C
:100B7800BB6214ADE02300240126C9F828302946B9
:100B88001C23384614934FF003084FF0C00A1596FB
:100B9800169417941894FFF761FB29463846CDF848
:100BA80050A0CDF854801894FFF758FB29464846C2
:100BB8001496CDF854801894FFF750FB4FF4104367
:100BC80014932946022338461893159616941794B9
:100BD800FFF744FB2023294648461493159616949C
:100BE80017941896FFF73AFB29464846CDF850A0C7
:100BF8001596169417941894FFF730FB834B1A68D0
:100C080042F480321A601A6842F400321A603046A0
:100C1800FFF7A6FE4FF08050FFF7A2FE29463846A0
:100C2800CDF850A0CDF854801894FFF717FB29464B
:100C380048461496CDF854801894FFF70FFB744B70
:100C48001A6822F4804222F010021A601A6822F40C
:100C580040521A601A6822F020021A601A6822F0BC
:100C680040021A601A6842F080021A601A6822F478
:100C7800407242F480721A601A6822F4406242F4A8
:100C880080621A6006A90DF1780A4FF0A040069418
:100C980007940894FFF7A3FA4FF480530CA94FF078
:100CA800A04011930C940D940E940F941096FFF796
:100CB800ABFA4AF8744D58465146FFF781FA4FF09F
:100CC800A042536843F004035360536823F00803B9
:100CD80053604FF4407393FAA3F3136B23F4F86350
:100CE80043F4806313634FF0007393FAA3F34FF058
:100CF8000071B3FA83F321FA03F39B0013444FF016
:100D0800F870D3F814C090FAA0FE4FF09071BEFAB4
:100D18008EFE21FA0EF14FF0070E0EFA01F12CEAC1
:100D2800010190FAA0F05961D2F8B03023F4803371
:100D3800C2F8B030DBF8083023F0E07343F4000366
:100D4800CBF80830DFF8D4B04FF40060FFF724FE8A
:100D580051465846ADF804400294039404948DF823
:100D68001440FFF7ADFBDBF80030DFF8B4A023F048
:100D78008003CBF80030DBF8183043F00803CBF8D9
:100D88001830314660230CAA58460C930D940E94E3
:100D98000F941094119412941394FFF7D3FBDBF87B
:100DA800183023F00403CBF81830DAF804300D9427
:100DB80043F400630CAACAF804304FF48051584633
:100DC8000E94FFF7BFFBDAF8043023F48063CAF807
:100DD8000430DBF8043023F07003CBF80430DBF880
:100DE800043023F47003CBF80430DBF8083023F028
:100DF8008003CBF808304FF400531893294611E0CC
:100E080000ED00E00003FA0510E000E000000140FA
:100E1800080002400004004800030050002C014074
:100E2800182C01404FF0007358461B9314941594E6
:100E380016948DF85C40ADF85E4019941A941C9491
:100E48001D94FFF7E7FC4FF4807306930223079382
:100E580006A9062338460B93089409940A94FFF7C9
:100E6800FDF9022306A94FF4006A079338460B23BD
:100E78000B93CDF818A0089409940A94FFF7EEF99B
:100E88003046FFF77BFD0223294638461593CDF8F7
:100E980050801996169417941894FFF7DFF90CA947
:100EA8004FF08040ADF830400D940E940F94FFF74A
:100EB80007FB4FF080434FF480401A6822F080020D
:100EC8001A605A6822F070025A609A6822F080020A
:100ED8009A609A6922F0030232439A619A69C34E72
:100EE80022F00C029A619A6922F0F0029A611A6A59
:100EF80042F00A021A629A6922F4407242F480723D
:100F08009A619A6922F440629A619A6922F470425D
:100F18009A611A6A42F0A0021A62FFF73DFD4FF487
:100F2800C0630C9302230D930CA907233846CDF810
:100F3800388011930F941094FFF790F9AC4B1A680E
:100F480022F4804222F010021A601A6822F44052F9
:100F58001A601A6822F020021A601A6822F0400209
:100F68001A601A6842F080021A601A6822F4407205
:100F78001A601A6822F440621A6053F8142C22F49A
:100F8800804222F0100242F0100243F8142C53F869
:100F9800142C22F4405243F8142C53F8142C22F049
:100FA800200243F8142C53F8142C22F0400243F882
:100FB800142C53F8142C42F0800243F8142C53F8E4
:100FC800142C22F4407243F8142C53F8142C22F4F5
:100FD800406243F8142C4FF400470C2329464FF481
:100FE800E13B3046CDF850B01594169417941893F9
:100FF8001A971994FFF73EFCB36823F48063B36033
:10100800B36843F48053B360736823F49043736008
:10101800B36823F02A03B360336843F001033360F5
:101028004FF40030FFF7AAFC18230C9302230D930A
:101038000CA907234846CDF8388011930F941094D3
:10104800FFF70CF96B4BDFF8BC811A6822F4804279
:1010580022F010021A601A6822F440521A601A68C4
:1010680022F020021A601A6822F040021A601A68F8
:1010780042F080021A601A6822F440721A601A68F4
:10108800A6F5744622F440621A60294604233046C5
:1010980018931A97CDF850B015941694179419947C
:1010A800FFF7E8FBB36823F48063B360B36843F4E5
:1010B8008053B360736823F490437360B36823F07C
:1010C8002A03B360336843F0010333604FF4802090
:1010D800FFF762FC40F24A23ADF85030FF2329465F
:1010E800169340464FF40073179315948DF860409B
:1010F800FFF7E6F9D8F8003023F0800306F57C46C0
:10110800C8F800304FF48030FFF746FC29463046D7
:10111800ADF850401594169417948DF86040FFF779
:10112800CFF9336823F080033360B36823F4A03326
:1011380023F00703B360736823F070037360B36828
:1011480023F08003B360FFF703FCFFF733FC2A4A60
:101158002A4E00014FF48043C0B282F80E03136098
:10116800FFF7F6FBFFF726FC0001C0B282F80B037D
:10117800C2F800A0FFF7ECFBFFF71CFC0001C0B2AF
:1011880082F80F031760FFF7E3FBFFF713FC00017A
:101198004FF48033C0B282F810031360FFF7D8FB16
:1011A800FFF708FC00012023C0B282F82503536032
:1011B800FFF7CEFBFFF7FEFB00014023C0B282F829
:1011C80026035360FFF7C4FBFFF7F4FB00014FF061
:1011D8008063C0B282F81A031360D8F80030084F51
:1011E800DFF824E043F0010310E000BF00380140BD
:1011F800580002406C00024000E100E014000020AA
:1012080010E000E0004801403F190100C8F8003034
:10121800D8F80C3043F00103C8F80C30A4464FF05E
:101228001408B8F1000F58D108231493013404238B
:10123800E4B215931023169363008DF85D302344B0
:101248008DF85C408DF85E3095E80F0086E80F0059
:10125800434603F1010A5246F118B01891F80C9070
:1012680090F80C80C14513D991F80C8056F823B03A
:1012780090F80C905FFA89F981F80C9056F8229052
:1012880046F823905FFA88F880F80C8046F822B078
:101298000132022AE1D05346022BDAD1737B327B2A
:1012A8009B1ADBB27373B37B327B9B1ADBB2B373CB
:1012B800B37B727B9B1ADBB2B373337BDB43DBB24A
:1012C8003373737BDB43DBB27373B37BDB43DBB218
:1012D800B373074B01221A70A1E7C7F804E0C7F8F7
:1012E80008C0044B1B68052BFBD008F1FF3898E7B2
:1012F8002400002010E000E07047FEE7FEE7FEE76C
:10130800FEE77047704770477047704770477047EF
:1013180070470000394B1A69D20770B54BD56FF08A
:1013280001021A61364B37481A68022A364A02D037
:101338000168FE2940DD4FF0904104248C610824A7
:101348008C6110248C610021304C19600160257873
:10135800012D0DD12E4D217055F8214042F8214024
:101368006C185618247B0131E4B203293473F3D185
:10137800196851B9117BFF2928D04FF090410424F6
:101388008C6208248C6210248C6219681144097BD1
:101398000468C1F1FF012144016019680029A8BF50
:1013A8001B681649ABBFD2180222137B1A60ACBF68
:1013B800DBB200234B6270BD196852F821404FF030
:1013C80090418C61196801311960D1E7517BFF297F
:1013D80007D0012119604FF0904154688C629468DD
:1013E800D2E7917BFF2905D00221196094684FF05C
:1013F8009041C9E74FF0FF311960C6E70048014046
:1014080000000020480000200400002024000020E4
:1014180014000020704770471549D1F8883043F40C
:101428007003C1F88830134B1A6842F001021A6041
:101438005868114A02405A601A6822F0847222F4ED
:1014480080321A601A6822F480221A605A6822F4DC
:10145800FE025A60DA6A22F00F02DA62186B074A53
:1014680002401A6300229A604FF000638B60704755
:1014780000ED00E0001002400CC07FF8CCFC00FF3B
:10148800DFF834D0002103E00C4B5B5843500431A3
:101498000B480C4B42189A42F6D30B4A02E0002341
:1014A80042F8043B094B9A42F9D3FFF7B5FF00F025
:1014B80011F8FFF7FDFAFEE7004000205C15000870
:1014C800000000202C0000202C0000204C000020F0
:1014D800FEE7000070B50D4E0D4CA41BA4100025AE
:1014E800A54209D10B4E0C4C00F018F8A41BA4100F
:1014F8000025A54205D170BD56F82530984701351D
:10150800EEE756F8253098470135F2E754150008FC
:10151800541500085415000858150008F8B500BF00
:10152800F8BC08BC9E467047F8B500BFF8BC08BCBC
:041538009E46704714
:10153C000000000000000000010203040607080977
:08154C0000000000010203048D
:04155400AD010008DD
:0415580089010008FD
:10155C000200000004000000080000001000000061
:10156C00D20A0A000400000008000000100000006D
:0C157C00FF0000000100000000127A00D7
:040000050800148952
:00000001FF
