:020000040800F2
:1000000000400020FD1400082D1300082F130008E5
:1000100031130008331300083513000800000000F6
:10002000000000000000000000000000371300087E
:1000300039130008000000003B1300083D130008BE
:100040004D1500084D1500084D1500084D15000808
:100050004D1500084D1500084D1500084D150008F8
:100060004D1500084D1500084D1500083F130008F8
:100070004D1500084D1500084113000843130008F2
:10008000451300084D1500084D1500084D150008D2
:100090004D1500084D1500084D1500084D150008B8
:1000A0004D1500084D150008491300084D150008AE
:1000B0004D15000800000000000000004D1500086C
:1000C0004D1500084D1500084D15000800000000F2
:1000D0004D15000891140008931400084D150008F0
:1000E0004D1500084D1500084D15000800000000D2
:1000F0000000000000000000000000000000000000
:100100000000000000000000000000004D15000885
:1001100000000000000000004D1500080000000075
:1001200000000000000000000000000000000000CF
:1001300000000000000000000000000000000000BF
:100140004D1500084D1500080000000000000000DB
:10015000000000000000000000000000000000009F
:100160004D1500084D1500084D1500084D150008E7
:100170004D15000800000000000000000000000015
:08018000000000004D1500080D
:1001880010B5054C237833B9044B13B10448AFF3C9
:1001980000800123237010BD2C0000200000000007
:1001A8009815000808B5034B1BB103490348AFF382
:1001B800008008BD000000003000002098150008ED
:1001C8004FF0A0439B68DB075FBF83680A6823F48E
:1001D800403313435ABF836001200020704783686F
:1001E800DB0710B50DD491E81800C268896823436D
:1001F80022F480420B4322F038021343C3600120EB
:1002080010BD002010BD00008368DB07F0B520D4C6
:100218004C68DFF844C0D1F800E0CF680E694D693A
:100228008CB1C3688A6803EA0C0343EA0E031343DC
:100238003B4333432B43C360036B23F00F031C433F
:1002480004630120F0BDC26802EA0C0242EA0E0310
:10025800EEE70020F0BD00BF3CC0F0FF2DE9F04301
:100268000A6892FAA2F44FF0010EB4FA84F4032556
:100278000F2732FA04F30DD14B68013B012B06D846
:100288004368C96823EA02034A431A4342600120CB
:10029800BDE8F0830EFA04F3134069D0D1F8048066
:1002A800D0F8009093FAA3FCBCFA8CFC93FAA3F65E
:1002B800B6FA86F64FEA4C0C05FA0CFC760029EAE9
:1002C8000C0C08FA06F64CEA0606066008F1FF363A
:1002D800012E16D8866893FAA3FCBCFA8CFC93FA14
:1002E800A3F94FEA4C0C05FA0CFC26EA0C0CB9FAF7
:1002F80089F98E684FEA490906FA09F64CEA0606B2
:100308008660C66893FAA3FCBCFA8CFC93FAA3F93E
:100318004FEA4C0C05FA0CFC26EA0C0CB9FA89F9E0
:100328000E694FEA490906FA09F64CEA0606B8F1D9
:10033800020FC6601CD193FAA3F6B6FA86F6072E0A
:10034800D1F814C016DCD0F8208093FAA3F6B6FAD8
:1003580086F693FAA3F3B3FA83F3B60007FA06F620
:100368009B0028EA06060CFA03FC46EA0C0606621D
:1003780001347EE7D0F824801B0A93FAA3F6B6FA74
:1003880086F693FAA3F3B3FA83F3B60007FA06F6F0
:100398009B0028EA06060CFA03F333434362E7E7B7
:1003A800034B044A5B68C3F30313D35CD84070471C
:1003B80000100240B0150008034B044A5B68C3F301
:1003C8000223D35CD840704700100240C0150008D3
:1003D800034B044A5B68C3F3C223D35CD84070471D
:1003E80000100240C01500080D4B0E495A680E480F
:1003F80002F48032002A08BF0846D96A5B684FF4C5
:10040800701292FAA2F2B2FA82F203F47013D34095
:10041800023301F00F010131B0FBF1F0584370478E
:100428000010024000093D0000127A00044B5B688E
:1004380003F00C03082B01D1FFF7D6BF0148704722
:100448000010024000127A0010B50446FFF7EEFFD4
:100458002060FFF7A5FF6060FFF7AEFFA06060684F
:10046800FFF7B6FFE06010BD08B518BB124A136B62
:1004780003F00303022B0ED0032B05D0012B11D15F
:10048800BDE80840FFF7D2BF136813F0020F0B4B0B
:1004980018BF184608BD136A13F0020F18BF4FF4AF
:1004A800004008BDFFF7C2FFFFF77AFFBDE808402C
:1004B800FFF782BF002008BD0010024000127A003A
:1004C8001E4A0368904210B502D0B0F1804F09D19E
:1004D8004C6823F07003904243EA04030DD0B0F156
:1004E800804F0AD0164A904207D002F580629042A7
:1004F80003D002F58062904203D1CA6823F44073A6
:10050800134303608B68C3620B8883620B4B98426A
:100518000BD003F5A053984207D003F580639842A7
:1005280003D003F58063984201D10B7C03634369D0
:1005380043F001034361012010BD00BF002C0140BE
:1005480000400140B1F5807F30B500F0C18005D88A
:1005580001293FD010297BD0002030BDB1F5803F64
:1005680000F0F580B1F5801F00F02181B1F5805FC2
:10057800F2D1036A156823F480530362036A44685E
:10058800C16921F0807121F4E64141EA052115692C
:1005980023F4005343EA0533556823F4805343EAB0
:1005A80005339B4DA8420BD005F5A055A84207D0AE
:1005B80005F58065A84203D005F58065A84204D1F9
:1005C800956924F4804444EA8514D2684460C16182
:1005D80002643AE0036A156823F001030362036AC0
:1005E8004168846924F4803424F073042C43156929
:1005F80023F002032B43556823F001032B43844D5A
:10060800A8420BD005F5A055A84207D005F580658E
:10061800A84203D005F58065A84212D1556923F098
:10062800080343EA8503956823F0040343EA850336
:10063800956921F480712943D56921F4007141EA53
:100648004501D2684160846142630362012030BD84
:10065800036A156823F010030362036A416884691A
:1006680024F0807424F4E64444EA0524156923F050
:10067800200343EA0513556823F0100343EA0513E2
:10068800634DA8420BD005F5A055A84207D005F543
:100698008065A84203D005F58065A84213D1556945
:1006A80023F0800343EA8513956823F0400343EA67
:1006B8008513956921F4806141EA8501D56921F4A2
:1006C800006141EAC501D268416084618263BCE788
:1006D800036A156823F480730362036A4168C46976
:1006E80024F4803424F073042C43156923F4007334
:1006F80043EA0523556823F4807343EA0523444DF0
:10070800A8420BD005F5A055A84207D005F580658D
:10071800A84203D005F58065A84213D1556923F492
:10072800006343EA8523956823F4806343EA8523BD
:10073800956921F4805141EA0511D56921F40051E8
:1007480041EA4511D2684160C461C2637DE7036A2A
:10075800146823F480330362036A416D21F4803105
:1007680021F070010C43116923F4003343EA01437B
:10077800516823F4803343EA0143254988420BD06A
:1007880001F5A051884207D001F58061884203D065
:1007980001F58061884206D14168956921F480316C
:1007A80041EA05214160D268446582654DE7036AE4
:1007B800146823F480130362036A416D21F0807189
:1007C80021F4E04141EA0424116923F4001343EAC7
:1007D8000153516823F4801343EA01530C498842BA
:1007E8000BD001F5A051884207D001F580618842FD
:1007F80003D001F58061884206D14168956921F4EA
:10080800802141EA85214160D2684465C2651CE7C0
:10081800002C01408A680B7B13434A6823F48063E9
:1008280013430A6823F40063134323F48052CB89EB
:1008380013430A6923F4005313434A6A23F44043D9
:1008480013430B4A90420FD14A6923F47023134390
:100858000A6A23F4700313438A6923F080731343ED
:10086800CA6923F00073134343640120704700BF33
:10087800002C014030B50446006810F0010085B036
:100888000D4602D0002005B030BDEA686B682168CB
:1008980013432A691343AA6913431F4A0A4013439F
:1008A80023606368AA6823F4405313436360A36812
:1008B8006A6923F440731343A360184B9C4219D10F
:1008C800FFF7D2FD0028DDD02A68002ADAD0AB690C
:1008D800B3F5004F4FEA520318D103EB4003B3FBC3
:1008E800F2F34FF6F0721A40C3F342031343E36086
:1008F8000120C8E70A4B9C4204D16846FFF7A4FDD3
:100908000298DFE7074B9C42BCD1F6E70344B3FBF0
:10091800F2F39BB2EBE700BFF369FFEF0038014049
:1009280000440040004800404FF47A73B0FBF3F0F5
:10093800034B0022013858609A6007221A607047FA
:1009480010E000E0014B1860704700BF280000204D
:10095800024BD868C0F30220704700BF00ED00E0EA
:10096800054B5A6902435A615B6982B0184001908D
:10097800019B02B0704700BF00100240054BDA69C6
:100988000243DA61DB6982B018400190019B02B032
:10099800704700BF00100240054B9A6902439A61F4
:1009A8009B6982B018400190019B02B0704700BF5C
:1009B8000010024082B0084B084901900020019ABB
:1009C8000AB902B07047596098601A68052AFCD0C5
:1009D800019A013A0192F2E710E000E03F190100A4
:1009E800F0B5082385B004268DE84800102302934B
:1009F8008DF80C008DF80D108DF80E206B4413E95E
:100A08000F001A4C84E80F0000222346571C394671
:100A180098185C18067B257BAE420DD9057B53F8E8
:100A280022E0267BF6B2067353F8216043F8226071
:100A3800EDB2257343F821E001310229E9D0022FF4
:100A48003A46E3D15A7B197B521AD2B25A739A7B2F
:100A5800197B521AD2B29A739A7B597B521AD2B224
:100A68009A73034B01221A7005B0F0BD14000020E0
:100A78002400002000207047384A136823F0070339
:100A880043F0020310B51360136803F00703022B49
:100A980000D0FEE7324C236843F4802323602368A8
:100AA80043F48033236023689A03FCD5636823F4F6
:100AB800741343F4E8136360E36A23F00F03E362FB
:100AC800236843F08073236023689B01FCD5636827
:100AD80023F0F0036360636823F4E06343F4806306
:100AE8006360636823F460536360636823F00303FF
:100AF80043F002036360636803F00C03082BFAD128
:100B08001848FFF711FF184A1648136843F0040302
:100B18001360FFF717FF236B23F0030343F0010370
:100B28002363236B23F480732363236B23F4005321
:100B38002363236B23F480632363E36A23F4F8734A
:100B480043F48073E362FFF703FFFFF793FF074B5C
:100B58000001C0B283F8230010BD00BF002002408E
:100B68000010024000A24A0410E000E000ED00E09E
:100B78002DE9F04F0120A1B0FFF70EFF4FF0805094
:100B8800FFF7FCFEC24AC34BD168DFF8209321F47B
:100B9800E0610904090C0B43D360FFF7D9FEFFF7A6
:100BA80069FF0001C0B21076FFF7D2FEFFF762FFBF
:100BB8000001C0B25076FFF7CBFEFFF75BFF0001E4
:100BC800C0B29076FFF7C4FEFFF754FF0001C0B231
:100BD800D077FFF7BDFEFFF74DFF0001C0B282F8E6
:100BE8002000FFF7B5FEFFF745FF0001C0B282F80D
:100BF8002200FFF7ADFEFFF73DFF0001C0B282F80B
:100C08002300FFF739FFA44B05221A604FF4800038
:100C1800FFF7A6FE4FF40030FFF7A2FE4FF0904713
:100C28004FF48020FFF79CFE49F21C03BB62E023CF
:100C380000240126C9F8283016A91C233846169323
:100C48004FF00308C0251796189419941A94FFF7C3
:100C580005FB16A938461695CDF85C801A94FFF75F
:100C6800FDFA16A948461696CDF85C801A944FF0FE
:100C7800020AFFF7F3FA4FF4104316A93846169301
:100C8800179618941994CDF868A0FFF7E7FA20236F
:100C980016A9484616931796189419941A96FFF7AA
:100CA800DDFA16A9484616951796189419941A94B9
:100CB800FFF7D4FA794B1A6842F480321A601A683E
:100CC80042F400321A603046FFF74AFE4FF0805077
:100CD800FFF746FE16A938461695CDF85C801A949B
:100CE800FFF7BCFA16A948461696CDF85C801A9408
:100CF800FFF7B4FA6A4B6B4D1A6822F4804222F06F
:100D080010021A601A6822F440521A601A6822F017
:100D180020021A601A6822F040021A601A6842F02B
:100D280080021A601A6822F4407242F480721A60D3
:100D38001A6822F4406242F480621A6008A90DF130
:100D4800800B4FF0A040089409940A94FFF747FAE3
:100D58004FF480530EA94FF0A04013930E940F94B4
:100D6800109411941296FFF74FFA4BF8744D2846D9
:100D78005946FFF725FA4FF0A040436843F00403B3
:100D88004360436823F0080343604FF4407393FAC9
:100D9800A3F3036B23F4F86343F4806303634FF016
:100DA800007393FAA3F2B2FA82F223FA02F202FA79
:100DB8000AF202444FF0F87ED2F814C09EFAAEF15F
:100DC8004FF09073B1FA81F123FA01F1072303FA86
:100DD80001F101932CEA01019EFAAEFE5161D0F8AF
:100DE800B02022F48032C0F8B020AA6822F0E07265
:100DF80042F40002AA602C4D4FF40060FFF7CCFDCE
:100E080028465946ADF80C400494059406948DF88C
:100E18001C40FFF755FB2A68DFF894B022F08002E7
:100E28002A60AA6942F00802AA616022284631466F
:100E38000E920EAA0F941094119412941394149471
:100E48001594FFF77FFBAA6922F00402AA61DBF878
:100E580004200F9442F400622846CBF804204FF493
:100E680080510EAA1094FFF76DFBDBF8042022F4E2
:100E78008062CBF804206A6822F070026A606A68AF
:100E880022F470026A60AA6822F08002AA6011E067
:100E980000ED00E00003FA0510E000E0000001406A
:100EA8000800024000030050002C014000040048E4
:100EB800182C014028464FF000734FF4005216A931
:100EC8001D931A921694179418948DF86440ADF8EF
:100ED80066401B941C941E941F94FFF79BFC4FF4D0
:100EE8008072089208A9062238460D924FF4006BCA
:100EF800CDF824A00A940B940C94FFF7AFF90B22B9
:100F080008A938460D92CDF820B0CDF824A00A944F
:100F18000B940C94FFF7A2F93046FFF72FFD16A9A2
:100F28003846CDF858801B96CDF85CA018941994D3
:100F38001A94FFF793F90EA94FF08040ADF83840A6
:100F48000F9410941194FFF7BBFA4FF080424FF4BE
:100F58008040116821F080011160516821F0700112
:100F68005160916821F080019160916921F003013D
:100F780031439161916921F00C019161916921F0EE
:100F8800F0019161116A41F00A011162916921F43D
:100F9800407141F480719161916921F440619161DE
:100FA800916921F470419161116A41F0A0011162C7
:100FB800FFF7F2FC019B13934FF4C0620EA9384669
:100FC8000E92CDF84080CDF83CA011941294FFF712
:100FD80045F9BE4A116821F4804121F010011160E1
:100FE800116821F440511160116821F0200111604D
:100FF800116821F040011160116841F08001116011
:10100800116821F440711160116821F44061116088
:1010180052F8141C21F4804121F0100141F0100114
:1010280042F8141C52F8141C21F4405142F8141CC4
:1010380052F8141C21F0200142F8141C52F8141C18
:1010480021F0400142F8141C52F8141C41F08001B0
:1010580042F8141C52F8141C21F4407142F8141C74
:1010680052F8141C05F5406521F4406142F8141C3F
:101078004FF4E1370C224FF4004616A9284616977C
:101088001794189419941A921B941C96FFF7F2FB64
:10109800AA6822F48062AA60AA6842F48052AA6010
:1010A8006A6822F490426A60AA6822F02A02AA605A
:1010B8002A6842F001022A604FF40030FFF75EFC14
:1010C8001822019B0E920EA94846CDF84080139332
:1010D800CDF83CA011941294FFF7C0F87C4B1A6825
:1010E80022F4804222F010021A601A6822F4405258
:1010F8001A601A6822F020021A601A6822F0400268
:101108001A601A6842F080021A601A6822F4407263
:101118001A601A68A5F5744522F440621A6016A987
:101128000423284616971A931794189419941B9415
:101138001C96FFF79FFBAB68664F23F48063AB6098
:10114800AB6843F48053AB606B6823F490436B60E7
:10115800AB6823F02A03AB602B6843F001032B60D4
:101168004FF48020FFF718FC40F24A234FF0FF08A5
:1011780016A9ADF8583038464FF4007319931794F0
:10118800CDF860808DF86840FFF79AF93B6823F046
:10119800800305F57C453B604FF48030FFF7FCFB8E
:1011A80016A92846ADF858401794189419948DF844
:1011B8006840FFF785F92B6823F080032B60AB6844
:1011C80023F4A03323F00703AB606B6823F07003AC
:1011D8006B60AB6823F08003AB60FFF7B9FBFFF7E8
:1011E80049FC3D4A00014FF48043C0B282F80E0327
:1011F8001360FFF7ADFBFFF73DFC0001C0B282F8BA
:101208000B03C2F800B0FFF7A3FBFFF733FC0001A4
:10121800C0B282F80F031660FFF79AFBFFF72AFCAB
:1012280000014FF48033C0B282F810031360FFF757
:101238008FFBFFF71FFC00012023C0B282F82503B3
:101248005360FFF785FBFFF715FC00014023C0B290
:1012580082F826035360FFF77BFBFFF70BFC0001C6
:10126800C0B24FF0806382F81A0313603B6843F002
:1012780001033B60FB6843F00103FB602246214603
:101288004046FFF7ADFB4FF4FA70FFF793FB224699
:1012980041462046FFF7A4FB4FF4FA70FFF78AFB9C
:1012A800204642462146FFF79BFB4FF4FA70FFF7B2
:1012B80081FBE2B210461146FFF792FB01340A2087
:1012C800FFF778FBFF2CF4D108E000BF580002407C
:1012D8006C0002400048014000E100E0224621463F
:1012E8002046FFF77DFB013C0A20FFF763FB14F063
:1012F800FF04F3D1204622462146FFF771FB4FF445
:10130800FA70FFF757FB0134E4B21420FFF752FBE1
:1013180061006218D2B201F0FE012046FFF760FBBF
:10132800F1E700BF7047FEE7FEE7FEE7FEE770471C
:1013380070477047704770477047704770470000A4
:101348004B4B1A69D20770B540F190806FF00102DB
:101358001A61484B48481A68022A484A02D001686C
:10136800FE2959DD4FF0904104248C6108248C61DA
:1013780010248C610168FE2946DD0021404C19606B
:1013880001602578012D0DD13E4D217055F8214081
:1013980042F821406C185618247B0131E4B2032925
:1013A8003473F3D1196851B9117B00293ED04FF03D
:1013B800904104248C6208248C6210248C62196881
:1013C8001144097B046821440160196801290BD183
:1013D80019681144097B39B9196852F821404FF04E
:1013E80090418C61022119601968002931DB196864
:1013F8001144097B00292CD01B681A44137B1C4A12
:10140800C3F1FF03536270BD0168194CC1F1FF01BC
:101418006162FF210160C5E7196852F821404FF069
:1014280090418C61196801311960BBE7517B39B172
:10143800012119604FF0904154688C629468BDE7AF
:10144800947B02211960002CB9D094684FF0904128
:10145800B4E702211960064904684C62FF21016063
:101468001B6852F823204FF090439A6170BD00BF6B
:10147800004801400000002048000020040000202F
:101488002400002014000020704770471549D1F847
:10149800883043F47003C1F88830134B1A6842F05F
:1014A80001021A605868114A02405A601A6822F00C
:1014B800847222F480321A601A6822F480221A6038
:1014C8005A6822F4FE025A60DA6A22F00F02DA62DF
:1014D800186B074A02401A6300229A604FF00063B3
:1014E8008B60704700ED00E0001002400CC07FF8F0
:1014F800CCFC00FFDFF834D0002103E00C4B5B5834
:10150800435004310B480C4B42189A42F6D30B4A0D
:1015180002E0002342F8043B094B9A42F9D3FFF753
:10152800B5FF00F011F8FFF723FBFEE700400020AD
:10153800D0150008000000202C0000202C000020FE
:101548004C000020FEE7000070B50D4E0D4CA41BAA
:10155800A4100025A54209D10B4E0C4C00F018F838
:10156800A41BA4100025A54205D170BD56F825304E
:1015780098470135EEE756F8253098470135F2E7E8
:10158800C8150008C8150008C8150008CC150008BB
:10159800F8B500BFF8BC08BC9E467047F8B500BF58
:0815A800F8BC08BC9E46704728
:1015B0000000000000000000010203040607080903
:0815C000000000000102030419
:0415C800AD01000869
:0415CC008901000889
:1015D00002000000040000000800000010000000ED
:1015E000D20A0A00040000000800000010000000F9
:0C15F000FF0000000100000000127A0063
:04000005080014FDDE
:00000001FF
