:020000040800F2
:100000000040002025150008591300085B13000864
:100010005D1300085F130008611300080000000072
:100020000000000000000000000000006313000852
:10003000651300080000000067130008691300083A
:100040007515000875150008751500087515000868
:100050007515000875150008751500087515000858
:100060007515000875150008751500086B13000854
:1000700075150008751500086D1300086F1300084A
:10008000711300087515000875150008751500082E
:100090007515000875150008751500087515000818
:1000A000751500087515000875130008751500080A
:1000B000751500080000000000000000751500081C
:1000C000751500087515000875150008000000007A
:1000D00075150008B9140008BB1400087515000850
:1000E000751500087515000875150008000000005A
:1000F0000000000000000000000000000000000000
:10010000000000000000000000000000751500085D
:10011000000000000000000075150008000000004D
:1001200000000000000000000000000000000000CF
:1001300000000000000000000000000000000000BF
:10014000751500087515000800000000000000008B
:10015000000000000000000000000000000000009F
:100160007515000875150008751500087515000847
:1001700075150008000000000000000000000000ED
:080180000000000075150008E5
:1001880010B5054C237833B9044B13B10448AFF3C9
:1001980000800123237010BD2C0000200000000007
:1001A800C015000808B5034B1BB103490348AFF35A
:1001B800008008BD0000000030000020C0150008C5
:1001C8004FF0A0439B68DB075FBF83680A6823F48E
:1001D800403313435ABF836001200020704783686F
:1001E800DB0710B50DD491E81800C268896823436D
:1001F80022F480420B4322F038021343C3600120EB
:1002080010BD002010BD00008368DB07F0B520D4C6
:100218004C68DFF844C0D1F800E0CF680E694D693A
:100228008CB1C3688A6803EA0C0343EA0E031343DC
:100238003B4333432B43C360036B23F00F031C433F
:1002480004630120F0BDC26802EA0C0242EA0E0310
:10025800EEE70020F0BD00BF3CC0F0FF2DE9F04301
:100268000A6892FAA2F44FF0010EB4FA84F4032556
:100278000F2732FA04F30DD14B68013B012B06D846
:100288004368C96823EA02034A431A4342600120CB
:10029800BDE8F0830EFA04F3134069D0D1F8048066
:1002A800D0F8009093FAA3FCBCFA8CFC93FAA3F65E
:1002B800B6FA86F64FEA4C0C05FA0CFC760029EAE9
:1002C8000C0C08FA06F64CEA0606066008F1FF363A
:1002D800012E16D8866893FAA3FCBCFA8CFC93FA14
:1002E800A3F94FEA4C0C05FA0CFC26EA0C0CB9FAF7
:1002F80089F98E684FEA490906FA09F64CEA0606B2
:100308008660C66893FAA3FCBCFA8CFC93FAA3F93E
:100318004FEA4C0C05FA0CFC26EA0C0CB9FA89F9E0
:100328000E694FEA490906FA09F64CEA0606B8F1D9
:10033800020FC6601CD193FAA3F6B6FA86F6072E0A
:10034800D1F814C016DCD0F8208093FAA3F6B6FAD8
:1003580086F693FAA3F3B3FA83F3B60007FA06F620
:100368009B0028EA06060CFA03FC46EA0C0606621D
:1003780001347EE7D0F824801B0A93FAA3F6B6FA74
:1003880086F693FAA3F3B3FA83F3B60007FA06F6F0
:100398009B0028EA06060CFA03F333434362E7E7B7
:1003A800034B044A5B68C3F30313D35CD84070471C
:1003B80000100240D8150008034B044A5B68C3F3D9
:1003C8000223D35CD840704700100240E8150008AB
:1003D800034B044A5B68C3F3C223D35CD84070471D
:1003E80000100240E81500080D4B0E495A680E48E7
:1003F80002F48032002A08BF0846D96A5B684FF4C5
:10040800701292FAA2F2B2FA82F203F47013D34095
:10041800023301F00F010131B0FBF1F0584370478E
:100428000010024000093D0000127A00044B5B688E
:1004380003F00C03082B01D1FFF7D6BF0148704722
:100448000010024000127A0010B50446FFF7EEFFD4
:100458002060FFF7A5FF6060FFF7AEFFA06060684F
:10046800FFF7B6FFE06010BD08B518BB124A136B62
:1004780003F00303022B0ED0032B05D0012B11D15F
:10048800BDE80840FFF7D2BF136813F0020F0B4B0B
:1004980018BF184608BD136A13F0020F18BF4FF4AF
:1004A800004008BDFFF7C2FFFFF77AFFBDE808402C
:1004B800FFF782BF002008BD0010024000127A003A
:1004C8001E4A0368904210B502D0B0F1804F09D19E
:1004D8004C6823F07003904243EA04030DD0B0F156
:1004E800804F0AD0164A904207D002F580629042A7
:1004F80003D002F58062904203D1CA6823F44073A6
:10050800134303608B68C3620B8883620B4B98426A
:100518000BD003F5A053984207D003F580639842A7
:1005280003D003F58063984201D10B7C03634369D0
:1005380043F001034361012010BD00BF002C0140BE
:1005480000400140B1F5807F30B500F0C18005D88A
:1005580001293FD010297BD0002030BDB1F5803F64
:1005680000F0F580B1F5801F00F02181B1F5805FC2
:10057800F2D1036A156823F480530362036A44685E
:10058800C16921F0807121F4E64141EA052115692C
:1005980023F4005343EA0533556823F4805343EAB0
:1005A80005339B4DA8420BD005F5A055A84207D0AE
:1005B80005F58065A84203D005F58065A84204D1F9
:1005C800956924F4804444EA8514D2684460C16182
:1005D80002643AE0036A156823F001030362036AC0
:1005E8004168846924F4803424F073042C43156929
:1005F80023F002032B43556823F001032B43844D5A
:10060800A8420BD005F5A055A84207D005F580658E
:10061800A84203D005F58065A84212D1556923F098
:10062800080343EA8503956823F0040343EA850336
:10063800956921F480712943D56921F4007141EA53
:100648004501D2684160846142630362012030BD84
:10065800036A156823F010030362036A416884691A
:1006680024F0807424F4E64444EA0524156923F050
:10067800200343EA0513556823F0100343EA0513E2
:10068800634DA8420BD005F5A055A84207D005F543
:100698008065A84203D005F58065A84213D1556945
:1006A80023F0800343EA8513956823F0400343EA67
:1006B8008513956921F4806141EA8501D56921F4A2
:1006C800006141EAC501D268416084618263BCE788
:1006D800036A156823F480730362036A4168C46976
:1006E80024F4803424F073042C43156923F4007334
:1006F80043EA0523556823F4807343EA0523444DF0
:10070800A8420BD005F5A055A84207D005F580658D
:10071800A84203D005F58065A84213D1556923F492
:10072800006343EA8523956823F4806343EA8523BD
:10073800956921F4805141EA0511D56921F40051E8
:1007480041EA4511D2684160C461C2637DE7036A2A
:10075800146823F480330362036A416D21F4803105
:1007680021F070010C43116923F4003343EA01437B
:10077800516823F4803343EA0143254988420BD06A
:1007880001F5A051884207D001F58061884203D065
:1007980001F58061884206D14168956921F480316C
:1007A80041EA05214160D268446582654DE7036AE4
:1007B800146823F480130362036A416D21F0807189
:1007C80021F4E04141EA0424116923F4001343EAC7
:1007D8000153516823F4801343EA01530C498842BA
:1007E8000BD001F5A051884207D001F580618842FD
:1007F80003D001F58061884206D14168956921F4EA
:10080800802141EA85214160D2684465C2651CE7C0
:10081800002C01408A680B7B13434A6823F48063E9
:1008280013430A6823F40063134323F48052CB89EB
:1008380013430A6923F4005313434A6A23F44043D9
:1008480013430B4A90420FD14A6923F47023134390
:100858000A6A23F4700313438A6923F080731343ED
:10086800CA6923F00073134343640120704700BF33
:10087800002C014030B50446006810F0010085B036
:100888000D4602D0002005B030BDEA686B682168CB
:1008980013432A691343AA6913431F4A0A4013439F
:1008A80023606368AA6823F4405313436360A36812
:1008B8006A6923F440731343A360184B9C4219D10F
:1008C800FFF7D2FD0028DDD02A68002ADAD0AB690C
:1008D800B3F5004F4FEA520318D103EB4003B3FBC3
:1008E800F2F34FF6F0721A40C3F342031343E36086
:1008F8000120C8E70A4B9C4204D16846FFF7A4FDD3
:100908000298DFE7074B9C42BCD1F6E70344B3FBF0
:10091800F2F39BB2EBE700BFF369FFEF0038014049
:1009280000440040004800404FF47A73B0FBF3F0F5
:10093800034B0022013858609A6007221A607047FA
:1009480010E000E0014B1860704700BF280000204D
:10095800024BD868C0F30220704700BF00ED00E0EA
:10096800054B5A6902435A615B6982B0184001908D
:10097800019B02B0704700BF00100240054BDA69C6
:100988000243DA61DB6982B018400190019B02B032
:10099800704700BF00100240054B9A6902439A61F4
:1009A8009B6982B018400190019B02B0704700BF5C
:1009B8000010024082B0084B084901900020019ABB
:1009C8000AB902B07047596098601A68052AFCD0C5
:1009D800019A013A0192F2E710E000E03F190100A4
:1009E800F0B5082385B004268DE84800102302934B
:1009F8008DF80C008DF80D108DF80E206B4413E95E
:100A08000F001A4C84E80F0000222346571C394671
:100A180098185C18067B257BAE420DD9057B53F8E8
:100A280022E0267BF6B2067353F8216043F8226071
:100A3800EDB2257343F821E001310229E9D0022FF4
:100A48003A46E3D15A7B197B521AD2B25A739A7B2F
:100A5800197B521AD2B29A739A7B597B521AD2B224
:100A68009A73034B01221A7005B0F0BD14000020E0
:100A78002400002000207047384A136823F0070339
:100A880043F0020310B51360136803F00703022B49
:100A980000D0FEE7324C236843F4802323602368A8
:100AA80043F48033236023689A03FCD5636823F4F6
:100AB800741343F4E8136360E36A23F00F03E362FB
:100AC800236843F08073236023689B01FCD5636827
:100AD80023F0F0036360636823F4E06343F4806306
:100AE8006360636823F460536360636823F00303FF
:100AF80043F002036360636803F00C03082BFAD128
:100B08001848FFF711FF184A1648136843F0040302
:100B18001360FFF717FF236B23F0030343F0010370
:100B28002363236B23F480732363236B23F4005321
:100B38002363236B23F480632363E36A23F4F8734A
:100B480043F48073E362FFF703FFFFF793FF074B5C
:100B58000001C0B283F8230010BD00BF002002408E
:100B68000010024000A24A0410E000E000ED00E09E
:100B78002DE9F04F01209FB0FFF70EFF4FF0805096
:100B8800FFF7FCFECE4ACF4BD168DFF84893DFF879
:100B980048B321F4E0610904090C0B43D360FFF763
:100BA800D7FEFFF767FF0001C0B21076FFF7D0FE4F
:100BB800FFF760FF0001C0B25076FFF7C9FEFFF7EC
:100BC80059FF0001C0B29076FFF7C2FEFFF752FF4F
:100BD8000001C0B2D077FFF7BBFEFFF74BFF000163
:100BE800C0B282F82000FFF7B3FEFFF743FF000111
:100BF800C0B282F82200FFF7ABFEFFF73BFF00010F
:100C0800C0B282F82300FFF737FFAF4B05221A6006
:100C18004FF48000FFF7A4FE4FF40030FFF7A0FE6A
:100C28004FF090474FF48020FFF79AFE49F21C03DB
:100C3800BB6214ADE02300240126C9F828302946F8
:100C48001C23384614934FF003084FF0C00A15963A
:100C5800169417941894FFF701FB29463846CDF8E7
:100C680050A0CDF854801894FFF7F8FA2946484662
:100C78001496CDF854801894FFF7F0FA4FF4104307
:100C880014932946022338461893159616941794F8
:100C9800FFF7E4FA2023294648461493159616943C
:100CA80017941896FFF7DAFA29464846CDF850A067
:100CB8001596169417941894FFF7D0FA834B1A6870
:100CC80042F480321A601A6842F400321A603046E0
:100CD800FFF746FE4FF08050FFF742FE29463846A0
:100CE800CDF850A0CDF854801894FFF7B7FA2946EC
:100CF80048461496CDF854801894FFF7AFFA744B11
:100D08001A6822F4804222F010021A601A6822F44B
:100D180040521A601A6822F020021A601A6822F0FB
:100D280040021A601A6842F080021A601A6822F4B7
:100D3800407242F480721A601A6822F4406242F4E7
:100D480080621A6006A90DF1780A4FF0A040069457
:100D580007940894FFF743FA4FF480530CA94FF017
:100D6800A04011930C940D940E940F941096FFF7D5
:100D78004BFA4AF8744D58465146FFF721FA4FF09E
:100D8800A042536843F004035360536823F00803F8
:100D980053604FF4407393FAA3F3136B23F4F8638F
:100DA80043F4806313634FF0007393FAA3F34FF097
:100DB8000071B3FA83F321FA03F39B0013444FF055
:100DC800F870D3F814C090FAA0FE4FF09071BEFAF4
:100DD8008EFE21FA0EF14FF0070E0EFA01F12CEA01
:100DE800010190FAA0F05961D2F8B03023F48033B1
:100DF800C2F8B030DBF8083023F0E07343F40003A6
:100E0800CBF80830DFF8D4B04FF40060FFF7C4FD2A
:100E180051465846ADF804400294039404948DF862
:100E28001440FFF74DFBDBF80030DFF8B4A023F0E7
:100E38008003CBF80030DBF8183043F00803CBF818
:100E48001830314660230CAA58460C930D940E9422
:100E58000F941094119412941394FFF773FBDBF81A
:100E6800183023F00403CBF81830DAF804300D9466
:100E780043F400630CAACAF804304FF48051584672
:100E88000E94FFF75FFBDAF8043023F48063CAF8A6
:100E98000430DBF8043023F07003CBF80430DBF8BF
:100EA800043023F47003CBF80430DBF8083023F067
:100EB8008003CBF808304FF400531893294611E00B
:100EC80000ED00E00003FA0510E000E0000001403A
:100ED800080002400004004800030050002C0140B4
:100EE800182C01404FF0007358461494159416942A
:100EF8008DF85C40ADF85E4019941A941B931C94CD
:100F08001D94FFF787FC4FF4807306930223079321
:100F180006A906233846089409940A940B93FFF708
:100F28009DF9022306A94FF4006A079338460B235C
:100F38000B93089409940A94CDF818A0FFF78EF93A
:100F48003046FFF71BFD0223294638461593CDF896
:100F580050801694179418941996FFF77FF90CA9E6
:100F68004FF08040ADF830400D940E940F94FFF789
:100F7800A7FA4FF080434FF480401A6822F08002AD
:100F88001A605A6822F070025A609A6822F0800249
:100F98009A609A6922F0030232439A619A69C34EB1
:100FA80022F00C029A619A6922F0F0029A611A6A98
:100FB80042F00A021A629A6922F4407242F480727C
:100FC8009A619A6922F440629A619A6922F470429D
:100FD8009A611A6A42F0A0021A62FFF7DDFC4FF428
:100FE800C0630C9302230D930CA907233846CDF850
:100FF80038800F9410941193FFF730F9AC4B1A68AE
:1010080022F4804222F010021A601A6822F4405238
:101018001A601A6822F020021A601A6822F0400248
:101028001A601A6842F080021A601A6822F4407244
:101038001A601A6822F440621A6053F8142C22F4D9
:10104800804222F0100242F0100243F8142C53F8A8
:10105800142C22F4405243F8142C53F8142C22F088
:10106800200243F8142C53F8142C22F0400243F8C1
:10107800142C53F8142C42F0800243F8142C53F823
:10108800142C22F4407243F8142C53F8142C22F434
:10109800406243F8142C4FF400470C2329464FF4C0
:1010A800E13B3046159416941794CDF850B0189338
:1010B80019941A97FFF7DEFBB36823F48063B360D3
:1010C800B36843F48053B360736823F49043736048
:1010D800B36823F02A03B360336843F00103336035
:1010E8004FF40030FFF74AFC18230C9302230D93AA
:1010F8000CA907234846CDF838800F941094119313
:10110800FFF7ACF86B4BDFF8B8811A6822F480421D
:1011180022F010021A601A6822F440521A601A6803
:1011280022F020021A601A6822F040021A601A6837
:1011380042F080021A601A6822F440721A601A6833
:10114800A6F5744622F440621A6029460423304604
:1011580015941694179418931994CDF850B01A97BB
:10116800FFF788FBB36823F48063B360B36843F484
:101178008053B360736823F490437360B36823F0BB
:101188002A03B360336843F0010333604FF48020CF
:10119800FFF702FC40F24A232946ADF85030FF26FB
:1011A8004FF400734046159417938DF860401696D7
:1011B800FFF786F9D8F8003023F08003C8F800302C
:1011C8004FF48030FFF7E8FBADF8504015941694C3
:1011D80017948DF86040384C29462046FFF770F97F
:1011E800236823F080032360A36823F4A03323F04B
:1011F8000703A360636823F070036360A36823F0A8
:101208008003A360FFF7A4FBFFF734FC2B4A00011F
:101218004FF48043C0B282F80E031360FFF798FBC7
:10122800FFF728FC0001C0B282F80B03C2F800A047
:10123800FFF78EFBFFF71EFC0001C0B282F80F0318
:101248001760FFF785FBFFF715FC00014FF48033AB
:10125800C0B282F810031360FFF77AFBFFF70AFCAD
:1012680000012023C0B282F825035360FFF770FB0A
:10127800FFF700FC00014023C0B282F82603536048
:10128800FFF766FBFFF7F6FB00014FF08063C0B283
:1012980082F81A031360D8F8003043F00103C8F845
:1012A8000030D8F80C3043F001030BE0003801405F
:1012B800580002406C0002400040014000E100E09C
:1012C80000480140C8F80C303446224621462046E2
:1012D800FFF786FB013C0A20FFF76CFB14F0FF04C4
:1012E800F3D1224621462046FFF77AFB4FF4FA70E5
:1012F800FFF760FB4FF0FF098DF850908DF85140D3
:101308008DF852400026022E14BF06F101084FF056
:1013180000081EABFF279844AB5D013BAB5518F89E
:10132800283C013308F8283C9DF852209DF85110BC
:101338009DF85000FFF754FB013F0520FFF73AFBEB
:1013480017F0FF07E8D10136032EDCD1D4E700BF40
:101358007047FEE7FEE7FEE7FEE770477047704715
:101368007047704770477047704700004A4B1A69CA
:10137800D20770B540F18F806FF001021A61474BB8
:1013880047491A68022A02D00A68FE2A59DD4FF036
:1013980090420420906108209061102090610A68B2
:1013A800FE2A48DD00223F481A600A600478012CB2
:1013B8000ED13D4D3D4C027055F8220044F82200F4
:1013C800A818A618007B0132C0B2032A3073F3D1E3
:1013D8000A68FE2A5FDC1868344A50B9107B002876
:1013E8003AD04FF090400424846208248462102488
:1013F800846218681044007B0C68204408601868F0
:1014080001280BD118681044007B38B9186852F8C5
:1014180020404FF090408461022018601868104402
:10142800047B1D48002C2AD01B681A44137BC3F187
:10143800FF03436270BD184A08685062FF220A60C1
:10144800C6E71868194A52F820004FF09042906198
:101458001A6801321A60BBE7507B38B10120186066
:101468004FF09040546884629468C1E7947B0220EE
:101478001860002CBDD094684FF09040B8E7022463
:101488001C600C684462FF2008601B6852F8232027
:101498004FF090439A6170BD004801400000002061
:1014A8004800002024000020140000200400002030
:1014B800704770471549D1F8883043F47003C1F874
:1014C8008830134B1A6842F001021A605868114AB2
:1014D80002405A601A6822F0847222F480321A603C
:1014E8001A6822F480221A605A6822F4FE025A60AE
:1014F800DA6A22F00F02DA62186B074A02401A63AE
:1015080000229A604FF000638B60704700ED00E0A6
:10151800001002400CC07FF8CCFC00FFDFF834D08C
:10152800002103E00C4B5B58435004310B480C4B33
:1015380042189A42F6D30B4A02E0002342F8043BD1
:10154800094B9A42F9D3FFF7B5FF00F011F8FFF7FE
:101558000FFBFEE700400020F815000800000020FF
:101568002C0000202C0000204C000020FEE700008A
:1015780070B50D4E0D4CA41BA4100025A54209D131
:101588000B4E0C4C00F018F8A41BA4100025A54223
:1015980005D170BD56F8253098470135EEE756F865
:1015A800253098470135F2E7F0150008F0150008D6
:1015B800F0150008F4150008F8B500BFF8BC08BC21
:1015C8009E467047F8B500BFF8BC08BC9E467047F9
:1015D80000000000000000000102030406070809DB
:0815E8000000000001020304F1
:0415F000AD01000841
:0415F4008901000861
:1015F80002000000040000000800000010000000C5
:10160800D20A0A00040000000800000010000000D0
:0C161800FF0000000100000000127A003A
:0400000508001525B5
:00000001FF
